:020000040800F2
:1000000010040020C1010008B70B0008350B0008E0
:10001000B50B0008CD020008D10C0008000000005C
:10002000000000000000000000000000DD0B0008E0
:10003000CF02000800000000D90B0008DF0B000809
:10004000DB010008DB010008DB010008DB01000820
:10005000DB010008DB0B0008DB010008DB01000806
:10006000DB010008DB010008DB010008DB01000800
:10007000DB010008DB010008DB010008DB010008F0
:10008000DB010008DB010008DB010008DB010008E0
:10009000DB010008DB010008DB010008DB010008D0
:1000A000DB010008DB010008DB010008DB010008C0
:1000B000DB010008DB010008DB010008DB010008B0
:1000C000DB010008DB010008DB010008DB010008A0
:1000D000DB010008DB010008DB010008DB01000890
:1000E000DB010008DB010008DB010008DB01000880
:1000F000DB010008DB010008DB010008DB01000870
:10010000DB010008DB010008DB010008DB0100085F
:10011000DB010008DB010008DB010008DB0100084F
:10012000DB010008DB010008DB010008DB0100083F
:10013000DB010008DB010008DB010008DB0100082F
:10014000DB010008DB010008DB010008DB0100081F
:10015000DB010008DB010008DB010008DB0100080F
:10016000DB010008DB010008DB010008DB010008FF
:10017000DB010008DB010008DB01000800000000D3
:10018000DB010008D1020008DB010008DB010008E8
:10019000DB010008DB010008DB010008DB010008CF
:1001A000DB010008DB010008DB010008DFF80CD0F0
:1001B00000F07AF800480047F10C00081004002015
:1001C0000648804706480047FEE7FEE7FEE7FEE7F1
:1001D000FEE7FEE7FEE7FEE7FEE7FEE77D0C000830
:1001E000AD0100082DE9F05F0546002092469B46D0
:1001F00088460646814640241BE02846414647463D
:10020000224600F041F853465A46C01A914110D395
:1002100011461846224600F028F82D1A67EB01080F
:100220004F4622460120002100F01FF817EB00097D
:100230004E41201EA4F10104DFDC484631462A4627
:100240004346BDE8F09FD2B201E000F8012B491E01
:10025000FBD270470022F6E710B513460A46044663
:100260001946FFF7F0FF204610BD202A04DB203A94
:1002700000FA02F1002070479140C2F1200320FAF9
:1002800003F3194390407047202A04DB203A21FAF7
:1002900002F00021704721FA02F3D040C2F120029F
:1002A0009140084319467047064C074D06E0E06848
:1002B00040F0010394E8070098471034AC42F6D3AD
:1002C000FFF778FF300D0008500D0008FEE770477B
:1002D000704700002DE9F84FDFF890B100224FF091
:1002E00001084FF0030A4FF00F090BF1040E00BF95
:1002F0000B6808FA02F42340A3426ED14D68022D28
:1003000001D0122D0ED1D50800EB850CDCF8205061
:100310005607F70E09FA07F6B5430E69BE402E439D
:10032000CCF82060066855000F790AFA05FC07F042
:10033000030726EA0C06AF40374307604E68012EDC
:1003400005D0022E03D0112E01D0122E0ED18768B7
:10035000CE6827EA0C07AE403E4386604668A64357
:100360000C79C4F30014944034434460C4688E682C
:1003700024EA0C04AE402643C6604C68E4006FD506
:100380003B4C256845F480452560246822F0030530
:1003900004F480440094374C2E19D6F80848950789
:1003A0002F0F09FA07F5AC43334DA84201D10025C0
:1003B0002EE0324DA84201D1012529E0304DA8425E
:1003C00001D1022524E02F4DA84201D103251FE0D1
:1003D0002D4DA84202D104251AE041E02B4DA84240
:1003E00001D1052514E02A4DA84201D106250FE0D0
:1003F000284DA84201D107250AE0274DA84201D186
:10040000082505E0254DA84201D1092500E00A256F
:10041000BD402543C6F80858DBF800405D464E68ED
:100420009C43F60300D51C432C60DEF80040754663
:100430004E689C43B60300D51C432C600B4D083519
:100440002C684E689C43F60200D51C432C60074D77
:100450000C352C684E689C43B60200D51C432C60BA
:10046000521C102AFFF444AFBDE8F88F003C014055
:1004700044380240003001400000024000040240C5
:1004800000080240000C024000100240001402402C
:1004900000180240001C02400020024000240240DC
:1004A0000AB1816170470904FBE7000001488068D8
:1004B0007047000000000020024881680278114463
:1004C00081607047000000200B4810B5016841F4BE
:1004D00000710160016841F480610160016841F4CC
:1004E00080710160032000F06FF8002000F006F832
:1004F00000F024F8002010BD003C024070B50D4D06
:1005000004464FF47A712878B1FBF0F00A49096883
:10051000B1FBF0F000F0FAFA48B9102C07D2002233
:100520002146501E00F030F800206C6070BD0120A4
:1005300070BD0000000000200C0000200B4882B0BD
:10054000016841F480410160006800F4804000903F
:100550000648001F016841F080510160006800F00A
:1005600080500090052002B000F02EB844380240C0
:1005700000F01F02012191404009800000F1E020BD
:10058000C0F8001170470000F0B40E4B1B680C4619
:10059000C3F30223C3F10705042D00D90425191D57
:1005A000072901D2002300E0DB1E012606FA05F12F
:1005B000491E214099409E40761E16403143F0BCB2
:1005C00000F0FABA0CED00E0064900F007020868F6
:1005D0004FF6FF03184040EA0220034A1043086028
:1005E000704700000CED00E00000FA052DE9F8432B
:1005F0001748016841F0805101600068154F00F014
:100600008050012600903E64FFF750FF05464FF4EE
:100610007A78114C05E000BFFFF748FF401B4045CA
:100620000DD86068C003F7D57E64FFF73FFF05462D
:10063000464607E0FFF73AFF401BB04202D90320CD
:10064000BDE8F88360688003F4D50020F8E7000077
:100650004038024000000E42007000402DE9F04793
:100660000E46050065D0DFF81481D8F80000F7B217
:1006700000F00F00B04207D288F80070D8F80000F0
:1006800000F00F00B04254D128683D4C810712D5CC
:10069000400703D5206840F4E05020602878000728
:1006A00003D5206840F4604020602068A96820F0ED
:1006B000F000084320602878C0072DD030496868D2
:1006C0000839012812D0022813D0032811D0096854
:1006D000890700292DDA216821F0030101432160F7
:1006E000FFF7E4FE814641F2883A0EE0096889038B
:1006F000EFE709688901ECE7FFF7D8FEA0EB0901F5
:10070000514502D90320BDE8F0872068696800F0F0
:100710000C00B0EB810FEFD1D8F80010404601F08B
:100720000F01B14207D90770006800F00F00B04216
:1007300001D00120E7E72878400705D52068E9685F
:1007400020F4E050084320602878000706D5206890
:10075000296920F4604040EAC100206000F016F8EA
:100760002168084AC1F30311515CC840064908607A
:100770000020FFF7C3FE0020C5E70000003C024058
:10078000083802401E0D00080C000020154810B566
:10079000006810F00C02144813D01449042A0FD03A
:1007A000082A0ED10F4C241F2268236802F03F0252
:1007B0005B0207D52068C0F38810A0FB010106E0AA
:1007C000084610BD2168C1F38811A1FB0001002378
:1007D000FFF708FD2168C1F30141491C4900B0FB46
:1007E000F1F010BD083802400024F40040787D018B
:1007F0002DE9F84F050076D02878DFF8F8B2BE4C26
:10080000C00749D0DBF800105846C1F38101012927
:1008100008D00068C0F3810002280AD1201D0068BA
:10082000400206D52068800336D568680028E2D0EB
:1008300032E06868B0F5803F10D0B0F5A02F206896
:1008400010D020F480302060206820F480202060C8
:100850006868A0B1FFF72AFE06460CE0206840F465
:100860008030F4E740F480202060F7E7FFF71EFEB9
:10087000801B642873D820688003F7D50CE0FFF74D
:1008800015FE064605E000BFFFF710FE801B64283A
:10089000F0D820688003F7D42878DFF860828007DA
:1008A0004FF000093ED5DBF80010584611F00C0F50
:1008B00009D00068C0F3810002280BD18D48001FC9
:1008C0000068400206D42068800715D5E868012832
:1008D00009D111E0E868B8B10120C8F80000FFF7BD
:1008E000E5FD064605E002E1FFF7E0FD801B02287A
:1008F000C0D820688007F7D52068296920F0F80063
:1009000040EAC10020600DE0C8F80090FFF7CEFD7E
:10091000064604E0FFF7CAFD801B02281FD82068A6
:100920008007F7D42878000722D5724E7448696989
:100930006C3671B101210160FFF7B8FD074604E094
:10094000FFF7B4FDC01B022809D830688007F7D52F
:100950000EE0C0F80090FFF7A9FD074605E083E030
:10096000FFF7A4FDC01B02287ED830688007F7D4AB
:100970002878400768D5DFF87CA100270AF1380AFB
:10098000DAF80000C0000BD4DAF8001041F0805112
:10099000CAF80010DAF80000012700F0805000903B
:1009A000584E3068C00510D4306840F48070306014
:1009B000FFF77CFD009005E0FFF778FD0099401AF5
:1009C000022851D83068C005F6D54A4EA868683666
:1009D00001280FD00528306810D020F001003060C9
:1009E000306820F004003060A868B8B1FFF75EFD01
:1009F00000900FE0306840F00100F4E740F00400A0
:100A00003060F7E7FFF752FD0099411A41F2883054
:100A1000814264D830688007F4D50EE0FFF746FDC8
:100A2000009007E0FFF742FD0099411A41F288303B
:100A3000814254D830688007F4D42FB1DAF800101E
:100A400021F08051CAF80010A869C0B3DBF800108B
:100A5000C1F3810102294AD00228484607D0C8F8CC
:100A60006000FFF723FD00E039E005463AE0474625
:100A7000C8F86000FFF71AFD064604E0FFF716FD10
:100A8000801B02282BD820688001F7D4D5E9070104
:100A90000843A96A1C4A490802EB01416A6A41EA13
:100AA0008211084395F82C1040EA01611148001F9B
:100AB000016001203866FFF7F9FC054605E014E007
:100AC000FFF7F4FC401B022809D820688001F7D505
:100AD0000BE000BFFFF7EAFC401B022802D903200D
:100AE000BDE8F88F20688001F4D40020F8E70120E9
:100AF000F6E7000008380240003802400000474294
:100B0000800E4742007000400000FFFF10B5401EFD
:100B1000B0F1807F01D3012010BD4FF0E02460616F
:100B20000F21601700F048F80020A0610720206125
:100B3000002010BDFEE7000030B587B014216846E4
:100B4000FFF788FB19480024016841F004010160A7
:100B5000016801F004010591016841F08001016024
:100B6000016801F080010591016841F00201016016
:100B7000016801F002010591016841F00101016085
:100B800000680B4D00F0010005900022032128466B
:100B9000FFF786FC032001218DE8130003916946CD
:100BA0002846FFF797FB07B030BD00003038024001
:100BB00000040240FEE770470907090E002806DA24
:100BC00000F00F0000F1E02080F8141D704700F1E4
:100BD000E02080F800147047704770477047FFF7B7
:100BE0006BBC000030B593B030216846FFF732FB94
:100BF00014210CA8FFF72EFB1E480025016841F0C8
:100C000080510160006800F0805011901A4801681E
:100C100041F4404101600068022400F4404011901A
:100C20000120039010200490009406940820CDE940
:100C30000750B420CDE9090404200B906846FFF763
:100C4000D7FD00B1FEE7FFF7D1FC00B1FEE70CA92C
:100C50000F2081E831004FF4A0500F904FF48050E6
:100C6000109005210CA8FFF7F9FC002800D0FEE742
:100C700013B030BD40380240007000401048016899
:100C800041F4700101600F48016841F00101016009
:100C90000C4A00210832116002680B4B1A400260B6
:100CA000031D0A4A1A60026822F480220260054885
:100CB0000C30016002495806803908607047000016
:100CC00088ED00E000380240FFFFF6FE10300024FF
:100CD000FEE702E008C8121F08C1002AFAD17047D7
:100CE0007047002001E001C1121F002AFBD17047AC
:100CF000FFF7EAFBFFF776FFFFF71EFF0022114622
:100D00000520FFF741FC0520FFF732FC00221146C9
:100D10005120FFF739FC5120FFF72AFCFEE70000C5
:100D2000000000000000010203040607080900009B
:100D3000500D00080000002010000000D20C000838
:100D4000600D00081000002000040000E20C000804
:100D50000100000010000000000000000024F4006A
:04000005080001AD41
:00000001FF
